{
  "contractName": "MedidorUnergy",
  "abi": [
    {
      "constant": true,
      "inputs": [
        {
          "internalType": "uint256",
          "name": "",
          "type": "uint256"
        }
      ],
      "name": "medidas",
      "outputs": [
        {
          "internalType": "uint256",
          "name": "ID",
          "type": "uint256"
        },
        {
          "internalType": "string",
          "name": "hash_medidor",
          "type": "string"
        },
        {
          "internalType": "uint256",
          "name": "energia",
          "type": "uint256"
        },
        {
          "internalType": "string",
          "name": "tiempo",
          "type": "string"
        },
        {
          "internalType": "address",
          "name": "pk_medidor",
          "type": "address"
        }
      ],
      "payable": false,
      "stateMutability": "view",
      "type": "function"
    },
    {
      "constant": true,
      "inputs": [
        {
          "internalType": "address",
          "name": "",
          "type": "address"
        }
      ],
      "name": "pk2cuenta_medidas",
      "outputs": [
        {
          "internalType": "uint256",
          "name": "",
          "type": "uint256"
        }
      ],
      "payable": false,
      "stateMutability": "view",
      "type": "function"
    },
    {
      "constant": true,
      "inputs": [
        {
          "internalType": "address",
          "name": "",
          "type": "address"
        },
        {
          "internalType": "uint256",
          "name": "",
          "type": "uint256"
        }
      ],
      "name": "pk2medidas",
      "outputs": [
        {
          "internalType": "uint256",
          "name": "ID",
          "type": "uint256"
        },
        {
          "internalType": "string",
          "name": "hash_medidor",
          "type": "string"
        },
        {
          "internalType": "uint256",
          "name": "energia",
          "type": "uint256"
        },
        {
          "internalType": "string",
          "name": "tiempo",
          "type": "string"
        },
        {
          "internalType": "address",
          "name": "pk_medidor",
          "type": "address"
        }
      ],
      "payable": false,
      "stateMutability": "view",
      "type": "function"
    },
    {
      "constant": false,
      "inputs": [
        {
          "internalType": "string",
          "name": "_hash_medidor",
          "type": "string"
        },
        {
          "internalType": "uint256",
          "name": "_energia",
          "type": "uint256"
        },
        {
          "internalType": "string",
          "name": "_tiempo",
          "type": "string"
        }
      ],
      "name": "nueva_medida",
      "outputs": [],
      "payable": false,
      "stateMutability": "nonpayable",
      "type": "function"
    },
    {
      "constant": true,
      "inputs": [],
      "name": "longitud_medidas",
      "outputs": [
        {
          "internalType": "uint256",
          "name": "",
          "type": "uint256"
        }
      ],
      "payable": false,
      "stateMutability": "view",
      "type": "function"
    }
  ],
  "bytecode": "0x6080604052600060015534801561001557600080fd5b50610bd8806100256000396000f3fe608060405234801561001057600080fd5b50600436106100575760003560e01c80632628c9f91461005c57806328f718681461007a57806336da4fb7146101d65780633ec972c71461034a5780636131cad4146103a2575b600080fd5b6100646104f6565b6040518082815260200191505060405180910390f35b6101d46004803603606081101561009057600080fd5b81019080803590602001906401000000008111156100ad57600080fd5b8201836020820111156100bf57600080fd5b803590602001918460018302840111640100000000831117156100e157600080fd5b91908080601f016020809104026020016040519081016040528093929190818152602001838380828437600081840152601f19601f820116905080830192505050505050509192919290803590602001909291908035906020019064010000000081111561014e57600080fd5b82018360208201111561016057600080fd5b8035906020019184600183028401116401000000008311171561018257600080fd5b91908080601f016020809104026020016040519081016040528093929190818152602001838380828437600081840152601f19601f820116905080830192505050505050509192919290505050610503565b005b610222600480360360408110156101ec57600080fd5b81019080803573ffffffffffffffffffffffffffffffffffffffff169060200190929190803590602001909291905050506107b3565b6040518086815260200180602001858152602001806020018473ffffffffffffffffffffffffffffffffffffffff1673ffffffffffffffffffffffffffffffffffffffff168152602001838103835287818151815260200191508051906020019080838360005b838110156102a4578082015181840152602081019050610289565b50505050905090810190601f1680156102d15780820380516001836020036101000a031916815260200191505b50838103825285818151815260200191508051906020019080838360005b8381101561030a5780820151818401526020810190506102ef565b50505050905090810190601f1680156103375780820380516001836020036101000a031916815260200191505b5097505050505050505060405180910390f35b61038c6004803603602081101561036057600080fd5b81019080803573ffffffffffffffffffffffffffffffffffffffff169060200190929190505050610953565b6040518082815260200191505060405180910390f35b6103ce600480360360208110156103b857600080fd5b810190808035906020019092919050505061096b565b6040518086815260200180602001858152602001806020018473ffffffffffffffffffffffffffffffffffffffff1673ffffffffffffffffffffffffffffffffffffffff168152602001838103835287818151815260200191508051906020019080838360005b83811015610450578082015181840152602081019050610435565b50505050905090810190601f16801561047d5780820380516001836020036101000a031916815260200191505b50838103825285818151815260200191508051906020019080838360005b838110156104b657808201518184015260208101905061049b565b50505050905090810190601f1680156104e35780820380516001836020036101000a031916815260200191505b5097505050505050505060405180910390f35b6000600280549050905090565b60026040518060a0016040528060015481526020018581526020018481526020018381526020013373ffffffffffffffffffffffffffffffffffffffff1681525090806001815401808255809150509060018203906000526020600020906005020160009091929091909150600082015181600001556020820151816001019080519060200190610595929190610afe565b506040820151816002015560608201518160030190805190602001906105bc929190610afe565b5060808201518160040160006101000a81548173ffffffffffffffffffffffffffffffffffffffff021916908373ffffffffffffffffffffffffffffffffffffffff1602179055505050600081905550600460003373ffffffffffffffffffffffffffffffffffffffff1673ffffffffffffffffffffffffffffffffffffffff1681526020019081526020016000206040518060a0016040528060015481526020018581526020018481526020018381526020013373ffffffffffffffffffffffffffffffffffffffff16815250908060018154018082558091505090600182039060005260206000209060050201600090919290919091506000820151816000015560208201518160010190805190602001906106db929190610afe565b50604082015181600201556060820151816003019080519060200190610702929190610afe565b5060808201518160040160006101000a81548173ffffffffffffffffffffffffffffffffffffffff021916908373ffffffffffffffffffffffffffffffffffffffff160217905550505050600360003373ffffffffffffffffffffffffffffffffffffffff1673ffffffffffffffffffffffffffffffffffffffff16815260200190815260200160002060008154809291906001019190505550600160008154809291906001019190505550505050565b600460205281600052604060002081815481106107cc57fe5b906000526020600020906005020160009150915050806000015490806001018054600181600116156101000203166002900480601f01602080910402602001604051908101604052809291908181526020018280546001816001161561010002031660029004801561087f5780601f106108545761010080835404028352916020019161087f565b820191906000526020600020905b81548152906001019060200180831161086257829003601f168201915b505050505090806002015490806003018054600181600116156101000203166002900480601f0160208091040260200160405190810160405280929190818152602001828054600181600116156101000203166002900480156109235780601f106108f857610100808354040283529160200191610923565b820191906000526020600020905b81548152906001019060200180831161090657829003601f168201915b5050505050908060040160009054906101000a900473ffffffffffffffffffffffffffffffffffffffff16905085565b60036020528060005260406000206000915090505481565b6002818154811061097857fe5b9060005260206000209060050201600091509050806000015490806001018054600181600116156101000203166002900480601f016020809104026020016040519081016040528092919081815260200182805460018160011615610100020316600290048015610a2a5780601f106109ff57610100808354040283529160200191610a2a565b820191906000526020600020905b815481529060010190602001808311610a0d57829003601f168201915b505050505090806002015490806003018054600181600116156101000203166002900480601f016020809104026020016040519081016040528092919081815260200182805460018160011615610100020316600290048015610ace5780601f10610aa357610100808354040283529160200191610ace565b820191906000526020600020905b815481529060010190602001808311610ab157829003601f168201915b5050505050908060040160009054906101000a900473ffffffffffffffffffffffffffffffffffffffff16905085565b828054600181600116156101000203166002900490600052602060002090601f016020900481019282601f10610b3f57805160ff1916838001178555610b6d565b82800160010185558215610b6d579182015b82811115610b6c578251825591602001919060010190610b51565b5b509050610b7a9190610b7e565b5090565b610ba091905b80821115610b9c576000816000905550600101610b84565b5090565b9056fea265627a7a7231582062390716f332e1f87187ec0ee56c931c61d19787da7f771248898bf73f2281a764736f6c634300050c0032",
  "source": "pragma solidity ^0.5.0;\r\n\r\n/**\r\n * @title MedidorUnergy\r\n *\r\n * @dev este contrato registra las mediciones de energía y el hash del codigo del medidor en la Blockchain de Ethereum\r\n */\r\n contract MedidorUnergy {\r\n    uint Array_Element;\r\n    uint IDmedida=0;\r\n //__________________________________________________\r\n //Estructuras y Variables\r\n// En primer lugar creamos una estructura para definir la información que vamos a cargar en cada medida\r\n    struct medida {\r\n       uint ID;                 //En cada medida vamos a relacionar el ID, que lleva el orden en el cual fueron subidas las medidas\r\n       string hash_medidor;     //Vamos a subir el hash del medidor para identificar cambios en la integridad del medidor\r\n       uint energia;          //Vamos a subir el ultimo valor de energía medido\r\n       string tiempo;           //La medida de energía va acompañada de una estampa de tiempo\r\n       address pk_medidor;      //Por ultimo vamos a relacionar la medida con la clave publica del medidor que la envio a la Blockchain\r\n    }\r\n    \r\n    // Vamos a crear un listado de medidas para tener una trazabilidad total de todas las medidas enviadas desde todos los medidores\r\n    medida[] public  medidas;\r\n    \r\n//__________________________________________________\r\n//Mapeos\r\n    //En esta sección vamos a definir unos mapeos que nos van a permitir relacionar información de las medidas con un medidor especifico\r\n    mapping (address => uint) public pk2cuenta_medidas;     //En este mapeo vamos a llevar la cuenta de las medidas almacenadas por un medidor\r\n    mapping (address => medida[]) public pk2medidas;        //En este mapeo vamos a relacionar la clave publica del medidor e iremos agregando a un listado las medidas enviadas por el mismo\r\n//__________________________________________________\r\n    //Funciones\r\n    // En esta funcion vamos a permitir al medidor subir nuevas medidas al listado y a los mapeos\r\n    function nueva_medida( string memory _hash_medidor, uint _energia, string memory _tiempo) public {     //Definimos el nombre de la funcion y los parametros de entrada, los cuales son todos los datos de la estructura, excepto la clave publica\r\n        Array_Element  = (medidas.push(medida(IDmedida, _hash_medidor, _energia, _tiempo, msg.sender)));            //Subimos los datos ingresados en la función junto con la clave publica del medidor que hace el llamado a la misma\r\n        pk2medidas[msg.sender].push(medida(IDmedida, _hash_medidor, _energia, _tiempo, msg.sender));                //Actualizamos el mapeo que guarda todas las medidas de un medidor\r\n        pk2cuenta_medidas[msg.sender] ++;                                                                           //Actualizamos el mapeo de la cuenta de medidas almacenadas\r\n        IDmedida++;                                                                                                 //Actualizamos la cuenta de todas las medidas almacenadas\r\n    }\r\n//En esta funcion habilitamos la consulta para verificar el total de medidas almacenadas por todos los medidores\r\n    function longitud_medidas () public view returns (uint){  //Definimos la funcion publica  \r\n        return medidas.length;      //Devolvemos el valor del tamaño del vector de medidas\r\n    }\r\n}\r\n\r\n//FIN******************************************",
  "sourcePath": "/home/ed/Documents/fitn-dev-box/contracts/MedidorUnergy.sol",
  "compiler": {
    "name": "solc",
    "version": "0.5.12+commit.7709ece9.Emscripten.clang"
  },
  "schemaVersion": "3.0.20",
  "updatedAt": "2019-12-26T18:09:17.474Z",
  "networkType": "ethereum",
  "devdoc": {
    "details": "este contrato registra las mediciones de energía y el hash del codigo del medidor en la Blockchain de Ethereum",
    "methods": {},
    "title": "MedidorUnergy "
  },
  "userdoc": {
    "methods": {}
  }
}